:400000000080002011000000850500008505000008B5044B1A6803F53F5302331A6000F0D1FA00BFFA46004010B5054C237833B9044B13B10448AFF300800123237010BD98
:400040004881FF1F00000000C41B0000084B10B51BB108490848AFF300800848036803B910BD074B002BFBD0BDE81040184700BF000000004C81FF1FC41B0000C880FF1F44
:400080000000000010B500F02FFC01280CD1084C0022084BD4E9000100F0E4FCC4E9000100F032FC044B186000F026FC10BD00BF6881FF1F0000F03FEC81FF1F0000000011
:4000C0002DE970432A4B1B68012B02D14FF0FF3600E00126274BD3E900450022264B2046294600F09BFF804689461BA3D3E900232046294600F092FF0022204B01F0D6F88C
:4001000070B117A3D3E900234046494600F05CFE15A3D3E9002300F057FE04460D4604E000240025134BC3E90045124B9B68012B02D1104BC3E90445304600F0DFFD224658
:400140002B4600F041FE0B4BD3E9042300F08AFCBDE87083AFF300800000000000C052403333333333331340A7E8482EFF211940EC81FF1F6881FF1F008076400000F03F2A
:4001800008B5024B185C00F0B9FA08BDC81B0000F8B5069D079CA54213D000F061FC0022084B00F011FE06460F46281B00F096FD02460B463046394600F030FF024BC3E9EB
:4001C0000601F8BD00408F406881FF1F000000002DE9F04383B0344C236A04332362D4E90A89FFF76DFF06460F46C4E90A6702460B464046494601F04FF8002837D12B49ED
:400200000A682263236A0B600192009342464B4630463946FFF7BCFF04F11805D5E900450022234B2046294601F040F8F8B10022204B2046294601F057F8C0B11A4E16A36A
:40024000D3E90023D6E90E0100F0BEFD8046894613A3D3E900232046294600F0B5FD02460B464046494600F0FDFBC6E90E010E4B1A6A114CD3E90E01CDE900010F492046B7
:4002800001F07CF8204600F0D9FA00F017FB03B0BDE8F083AFF3008021B0726891EDEC3F247F30F0DC7BB83F6881FF1FF081FF1F00003440000034C0C481FF1F381C0000A7
:4002C00038B562B6144800F0EBFA144800F0A4FB00F07AFB00F05CFA00F096FA012000F0CBF9002000F0D4F90D4C236C0D4AD55CA32000F0D9F92846FFF742FF284600F008
:4003000091FA236C312B02D900222264ECE70133034A1364E8E700BFD1010000850000006881FF1FC81B0000FEE700BFF0B40022174611E050F82760F3B226F0FF0608E0FB
:4003400001EB420511F812406D78A5550132013BDBB2002BF4D10137162FEBD9F0BC7047064B1B78DBB203F00701054A11701B09013213704422034B1A707047CF0100495C
:400380006E5800407658004008B50A46002100F0ECFF08BD38B51925294B1D801823294A137040F2D62102321180023213704FF6FF7102321180023213700222224B1A70FD
:4003C00008224FF040231A70032103F5007319701E4B1B78DBB21E490B701E4B1A8041F25122023B1A8000240CE01B4B1B7803F0010343EA440404F003044FF4F07000F0A1
:400400001BFB013D0DB1032CEFD115B90320FFF78BFF124B4FF480721A8007221A7000220F490A704820023108701A700222033B1A700C4A137843F00703137038BD00BF99
:4004400080400040824000400043004008010049A146004022420040254200400440004006400040A243004008B500F073FF08BD38B572B6304A137843F004031370002425
:400480000CE02E4D630019194A0011462A44084691882858FFF778FF0134E4B2072CF0D927494FF09040FFF741FF264A137843F0020313701032137843F002031370224CB5
:4004C000237843F040032370A2F58632513A137843F01003137008221C491D48FFF7C4FF08221C491C48FFF7BFFF08221B491C48FFF7BAFF08221B491B48FFF7B5FF0A226E
:400500001A491B48FFF7B0FF1A4A137843F008031370194D61232B70FFF73CFF81232B700122164B1A70FFF71BFF0E2221461448FFF79AFF38BD00BFE8460040441C000089
:400540005C00004803500140A0430040380400480251004040040048F251004048040048125100405004004822510040580400483051004022430040004800400400084096
:40058000B043004008B500F0B9FE03680C2B00D1FEE7FEE708B5094B1A681044084BC31A802B02DC054B186005E000F0A7FE0C2303604FF0FF32104608BD00BFCC80FF1F3F
:4005C000F881FF1F08B5104E104D16E029686B68AC68002204E051F8040B43F8040B0432A242F8D1E868002203E0002143F8041B04328242F9D11035013E002EE6D100F006
:4006000083FEFFF75DFEFEE701000000D01C000008B5104A104B1A60104A136843F40073136000230AE0032B03D80D4A52F8231000E00C490C4A42F8231001332F2BF2D9FD
:400640000A4B1A780A4B1A70074A0A4B1A60FFF70FFF08BD0004FA050CED00E014ED00E000000000850500000080FF1FBC760040C080FF1F08ED00E0044A137803F0BF03B3
:40068000800100F0400018431070704710510040044A137803F07F03C001C0B218431070704700BF1051004010B5044605E0084B186800F0C1F9A4F50044B4F5004FF6D8CF
:4006C000034B586800FB04F000F0B6F910BD00BFD080FF1F024A137843F080031370704777640040014B1870704700BF07640040014B1870704700BF47640040014B187084
:40070000704700BF27640040014B1870704700BF87640040014B1878704700BF67640040014B1878704700BF5764004008B501E0FFF7F6FFFFF7EEFF10F0100FF8D108BD40
:4007400010B5114A137803F0C00343F0090313700E4C237843F001032370FF20FFF7C2FFFF20FFF7C5FF4E20FFF7C8FF0020FFF7CBFF00F069F9237843F01003237000F027
:4007800067F9FFF7D3FF10BD776400409764004008B5054B1B7823B9FFF7D2FF0122024B1A70FFF797FF08BDB581FF1F7222074B1A702022FF331A700622613B1A704722E7
:4007C00010331A70002250331A7070478664004010B500F039F904460A4A137843F020031370FF32137843F010031370013A137843F01003137000F069F8204600F028F957
:4008000010BD00BF9664004008B5054B1B7823B9FFF7CCFF0122024B1A70FFF7D9FF08BDB681FF1F034B1B7813F0040FFAD1024B18707047646500404765004038B5074B51
:400840001B782BB938BDFFF7EDFF0134A4B201E005460024285D0028F5D138BDB681FF1F024B1B68C3F88400704700BF08ED00E04001C0B2014B1870704700BF11E400E066
:400880004FF40032014B1A60704700BF00E100E04FF40032014B1A60704700BF80E100E010B50446FFF7F4FF2046FFF7D9FF0720FFF7DEFFFFF7E4FF10BD00BF4FF40032D4
:4008C000014B1A60704700BF80E200E0054A137843F0010313701032137843F001031370704700BFA2430040024B187800F00100704700BF01510040024B187800F0010020
:40090000704700BF80450040024B1878C0F34000704700BF01510040084A137843F0010313701032137843F00103137002F64D32137843F001031370704700BFA3430040EE
:40094000014B1870704700BF034F0040014B1880704700BF044F0040014B1880704700BF064F004008B5154A137803F0010313700232137803F0FC031370114B1A7802F08A
:40098000CF021A701A7842F030021A701A7802F0F0021A701A7842F00F021A70094A137843F0010313706320FFF7D0FF6320FFF7D3FF0020FFF7C4FF08BD00BF004F0040E6
:4009C0000B4F0040014F004008B5054B1B7823B9FFF7C8FF0122024B1A70FFF79DFF08BDB881FF1F014B1B681864704708ED00E04001C0B2014B1870704700BF00E400E054
:400A00000122014B1A60704700E100E00122014B1A60704780E100E010B50446FFF7F6FF2046FFF7DFFF0720FFF7E2FFFFF7E8FF10BD00BF000000000230800803D000BF8D
:400A400001380046FCD17047EFF3108072B6704780F31088704700BF81F0004102E000BF83F0004330B54FEA41044FEA430594EA050F08BF90EA020F1FBF54EA000C55EA69
:400A8000020C7FEA645C7FEA655C00F0E2804FEA5454D4EB5555B8BF6D420CDD2C4480EA020281EA030382EA000083EA010180EA020281EA0303362D88BF30BD11F0004F3A
:400AC0004FEA01314FF4801C4CEA113102D0404261EB410113F0004F4FEA03334CEA133302D0524263EB430394EA050F00F0A780A4F10104D5F1200E0DDB02FA0EFC22FADA
:400B000005F2801841F1000103FA0EF2801843FA05F359410EE0A5F120050EF1200E012A03FA0EFC28BF4CF0020C43FA05F3C01851EBE37101F0004507D54FF0000EDCF18D
:400B4000000C7EEB00006EEB0101B1F5801F1BD3B1F5001F0CD349085FEA30004FEA3C0C04F101044FEA445212F5800F80F09A80BCF1004F08BF5FEA500C50F1000041EBC5
:400B8000045141EA050130BD5FEA4C0C404141EB010111F4801FA4F10104E9D191F0000F04BF01460020B1FA81F308BF2033A3F10B03B3F120020CDA0C3208DD02F1140C03
:400BC000C2F10C0201FA0CF021FA02F10CE002F11402D8BFC2F1200C01FA02F120FA0CFCDCBF41EA0C019040E41AA2BF01EB0451294330BD6FEA04041F3C1CDA0C340EDC3C
:400C000004F11404C4F1200220FA04F001FA02F340EA030021FA04F345EA030130BDC4F10C04C4F1200220FA02F001FA04F340EA0300294630BD21FA04F0294630BD94F061
:400C4000000F83F4801306BF81F480110134013D4EE77FEA645C18BF7FEA655C29D094EA050F08BF90EA020F05D054EA000C04BF1946104630BD91EA030F1EBF00210020B2
:400C800030BD5FEA545C05D14000494128BF41F0004130BD14F580043CBF01F5801130BD01F0004545F0FE4141F470014FF0000030BD7FEA645C1ABF194610467FEA655C0F
:400CC0001CBF0B46024650EA013406BF52EA033591EA030F41F4002130BD00BF90F0000F04BF0021704730B54FF4806404F132044FF000054FF0000150E700BF90F0000FDF
:400D000004BF0021704730B54FF4806404F1320410F0004548BF40424FF000013EE700BF42004FEAE2014FEA31014FEA02701FBF12F07F4393F07F4F81F06051704792F02D
:400D4000000F14BF93F07F4F704730B54FF4607401F0004521F0004120E700BF50EA010208BF704730B54FF000050AE050EA010208BF704730B511F0004502D5404261EBE6
:400D800041014FF4806404F132045FEA915C3FF4DCAE4FF003025FEADC0C18BF03325FEADC0C18BF033202EBDC02C2F1200300FA03FC20FA02F001FA03FE40EA0E0021FAF9
:400DC00002F11444C1E600BF70B54FF0FF0C4CF4E06C1CEA11541DBF1CEA135594EA0C0F95EA0C0F00F0DEF82C4481EA030621EA4C5123EA4C5350EA013518BF52EA0335A6
:400E000041F4801143F4801338D0A0FB02CE4FF00005E1FB02E506F00042E0FB03E54FF00006E1FB03569CF0000F18BF4EF0010EA4F1FF04B6F5007F64F5407404D25FEA86
:400E40004E0E6D4146EB060642EAC62141EA55514FEAC52040EA5E504FEACE2EB4F1FD0C88BFBCF5E06F1ED8BEF1004F08BF5FEA500E50F1000041EB045170BD06F000469A
:400E800046EA010140EA020081EA0301B4EB5C04C2BFD4EB0C0541EA045170BD41F480114FF0000E013C00F3AB8014F1360FDEBF002001F0004170BDC4F10004203C35DA70
:400EC0000C341BDC04F11404C4F1200500FA05F320FA04F001FA05F240EA020001F0004221F0004110EBD37021FA04F642EB06015EEA430E08BF20EAD37070BDC4F10C040B
:400F0000C4F1200500FA04F320FA05F001FA04F240EA020001F0004110EBD37041F100015EEA430E08BF20EAD37070BDC4F1200500FA05F24EEA020E20FA04F301FA05F227
:400F400043EA020321FA04F001F0004121FA04F220EA020000EBD3705EEA430E08BF20EAD37070BD94F0000F0FD101F00046400041EB010111F4801F08BF013CF7D041EA27
:400F8000060195F0000F18BF704703F00046520043EB030313F4801F08BF013DF7D043EA0603704794EA0C0F0CEA135518BF95EA0C0F0CD050EA410618BF52EA4306D1D127
:400FC00081EA030101F000414FF0000070BD50EA410606BF1046194652EA430619D094EA0C0F02D150EA013613D195EA0C0F05D152EA03361CBF104619460AD181EA0301FB
:4010000001F0004141F0FE4141F470014FF0000070BD41F0FE4141F4780170BD70B54FF0FF0C4CF4E06C1CEA11541DBF1CEA135594EA0C0F95EA0C0F00F0A7F8A4EB0504A7
:4010400081EA030E52EA03354FEA013100F088804FEA03334FF0805545EA131343EA12634FEA022245EA111545EA10654FEA00260EF000419D4208BF964244F1FD0404F502
:40108000407402D25B084FEA3202B61A65EB03055B084FEA32024FF480104FF4002CB6EB020E75EB030E22BFB61A754640EA0C005B084FEA3202B6EB020E75EB030E22BF07
:4010C000B61A754640EA5C005B084FEA3202B6EB020E75EB030E22BFB61A754640EA9C005B084FEA3202B6EB020E75EB030E22BFB61A754640EADC0055EA060E18D04FEAE3
:40110000051545EA16754FEA06164FEAC30343EA52734FEAC2025FEA1C1CC0D111F4801F0BD141EA00014FF000004FF0004CB6E711F4801F04BF01430020B4F1FD0C88BFB3
:40114000BCF5E06F3FF6AFAEB5EB030C04BFB6EB020C5FEA500C50F1000041EB045170BD0EF0004E4EEA113114EB5C04C2BFD4EB0C0541EA045170BD41F480114FF0000EF2
:40118000013C90E645EA060E8DE60CEA135594EA0C0F08BF95EA0C0F3FF43BAF94EA0C0F0AD150EA01347FF434AF95EA0C0F7FF425AF104619462CE795EA0C0F06D152EAC2
:4011C00003353FF4FDAE1046194622E750EA410618BF52EA43067FF4C5AE50EA41047FF40DAF52EA43057FF4EBAE12E74FF0FF3C06E000BF4FF0010C02E000BF4FF0010CC9
:401200004DF804CD4FEA410C7FEA6C5C4FEA430C18BF7FEA6C5C1BD001B050EA410C0CBF52EA430C91EA030F02BF90EA020F0020704710F1000F91EA030F58BF994208BFD2
:4012400090422CBFD8176FEAE37040F0010070474FEA410C7FEA6C5C02D150EA013C07D14FEA430C7FEA6C5CD6D152EA033CD3D05DF8040B704700BF8446104662468C4663
:401280001946634600E000BF01B5FFF7B7FF002848BF10F1000F01BD4DF808EDFFF7F4FF0CBF012000205DF808FB00BF4DF808EDFFF7EAFF34BF012000205DF808FB00BF7E
:4012C0004DF808EDFFF7E0FF94BF012000205DF808FB00BF4DF808EDFFF7CEFF94BF012000205DF808FB00BF4DF808EDFFF7C4FF34BF012000205DF808FB00BF014B186882
:40130000704700BF4081FF1F0E4B70B51E460E4C0025E41AA410A54204D056F8253098470135F8E700F0C2FC084B094C1E46E41AA4100025A54204D056F8253098470135EF
:40134000F8E770BDB81C0000B81C0000B81C0000C01C000010B5431E0A44914204D011F8014B03F8014FF8E710BD03460244934202D003F8011BFAE7704700000EB400B546
:401380004FF402719CB0ADF814106FF00041049107914FF6FF711DAB02900690084853F8042BADF81610006802A9019300F064F8029B00221A701CB05DF804EB03B07047A5
:4013C0004081FF1F2DE9F0478E6882469E420C46914698463ED88A8912F4906F3AD02568096902236F1A656905EB450595FBF3F57B1C43449D4238BF1D4653050FD52946B5
:4014000000F040FB064698B13A462169FFF7A2FFA38923F4906343F08003A38113E02A4600F08EFB064670B92169504600F0DEFA0C23CAF80030A3894FF0FF3043F04003D1
:40144000A381BDE8F08726613E44266046466561ED1BA560464528BF464649463246206800F0A8FAA36800209B1BA36023681E442660BDE8F08700002DE9F04F9DB0039374
:401480008B8980461C060D4616460DD50B695BB9402100F0F7FA2860286118B90C23C8F80030CDE040236B610023099320238DF82930DFF89CB130238DF82A3037463C46C3
:4014C00014F8013B1BB9B7EB060910D003E0252BF9D02746F3E74B46324629464046FFF771FF013000F0A780099B4B4409933B78002B00F0A08000234FF0FF3204930793CF
:40150000059206938DF853301A930126052221784E4800F041FA671C049B38B14B4A3C46801A06FA00F018430490EFE7D90644BF20228DF853201A0744BF2B228DF8532028
:4015400022782A2A03D0079A00210A200BE0039A111D12680391002A10DA524243F00200079204900BE027463B780134303B092B03D800FB02320121F5E701B107923B780B
:401580002E2B1ED17B782A2B0AD1039B02371A1D1B680392002BB8BF4FF0FF33059310E0002319460593781C0A2407463A780130303A092A03D804FB01210123F5E703B1A6
:4015C000059103223978224800F0E6F940B14023CBEB000003FA00F0049B013718430490397806221B487E1C8DF8281000F0D4F988B1194B33B9039B073323F00703083380
:40160000039314E003AB00932A46144B04A94046AFF3008007E003AB00932A460F4B04A9404600F093F8B0F1FF3F824603D0099B5344099342E7AB895B0601D4099801E0B5
:401640004FF0FF301DB0BDE8F08F00BF761C00007C1C0000801C000000000000C51300002DE9F04791461F460A698B6806469342B8BF1346C9F8003091F843200C46DDF8CA
:40168000208012B10133C9F800302368990642BFD9F800300233C9F80030256815F0060510D104F1190A07E00123524639463046C04701301AD00135E368D9F800209B1AD9
:4016C0009D42F1DB94F843302268003318BF012392060FD5E118302081F843005A1C94F845102244023382F8431003E04FF0FF30BDE8F08704F1430239463046C047013074
:40170000F4D02268D9F80050E36802F00602042A08BF5D1B2269A3680CBF25EAE57500259342C4BF9B1AED184FF000091A344D4509D00123224639463046C0470130D5D028
:4017400009F10109F3E70020BDE8F0872DE9F04317460A7E85B06E2A984606460C460C9B01F1430E00F0AE8011D8632A22D009D8002A00F0BB80582A40F0CA8081F8452058
:40178000834955E0642A1ED0692A1CD0C0E0732A00F0B08009D86F2A2ED0702A40F0B8800A6842F020020A603EE0752A24D0782A3AD0ADE01A6801F14205111D196013685F
:4017C00084F84230A8E021681A6811F0800F02D0111D196008E011F0400F02F10401196002D0B2F9003000E01368002B3CDA2D225B4284F8432037E021681A6811F0800FF0
:4018000002D0111D196007E011F0400F02F10401196001D0138800E01368227E5C496F2A14BF0A2208221BE078225A4984F845202268186812F0800F00F104051D6003D1BA
:40184000550601D5038800E00368D00744BF42F0200222601BB9226822F0200222601022002084F8430001E049490A226568002DA56008DB206820F0040020602BB9002DDE
:401880007DD175460CE0002B79D07546B3FBF2F002FB1033CB5C05F8013D03460028F5D1082A0BD12368DA0708D5236962689A42DEBF302305F8013C05F1FF35C5EB0E03FD
:4018C00023612EE008681A6810F0800F496903D0101D1860136808E010F0400F02F104001860136801D0198000E0196000232361754616E01A68111D196015680021626863
:40190000284600F049F808B1401B6060636804E004F1420584F8422001232361002384F84330CDF800803B4603AA21463046FFF797FE013002D14FF0FF3026E023692A4662
:4019400039463046C0470130F5D023689B0710D5002504F1190907E001234A4639463046C0470130E7D00135E368039A9B1A9D42F2DBE068039B9842B8BF184605E00B782C
:4019800004F1420584F842308AE705B0BDE8F083871C0000981C000010B5C9B202449042034605D01C7801308C42F8D1184610BD002010BD884210B501EB020301D8421EC5
:4019C0000BE09842FBD28118D21AD34204D013F8014D01F8014DF8E710BD994204D011F8014B02F8014FF8E710BD000038B50546002944D051F8043C0C1F002BB8BFE418DA
:401A000000F0D4F81E4A1368114613B96360146030E0A3420DD92268A018834201BF18685B681218226063600C6023E0A24203D813465A68002AF9D118681918A1420BD1AC
:401A40002168014458188242196013D110685268014419605A600DE002D90C232B6009E021686018824201BF106852680918216062605C602846BDE8384000F098B838BD5B
:401A8000C081FF1F70B5CD1C25F0030508350C2D38BF0C25002D064601DBA94202D90C23336046E000F082F8234B1C681A462146A1B10B685B1B0ED40B2B03D90B60CC185A
:401AC000CD501EE08C420BBF63684B681360636018BF0C4615E00C464968E9E7174C23681BB9304600F052F820602946304600F04DF8431C18D0C41C24F00304A0420DD180
:401B00002560304600F053F804F10B00231D20F00700C31A0ED05A42E25070BD211A304600F034F80130EBD10C233360304600F03EF8002070BD00BFC081FF1FBC81FF1F84
:401B4000F8B5074615460E4621B91146BDE8F840FFF798BF1AB9FFF749FF2846F8BD00F027F885420ED929463846FFF78BFF044650B131462A46FFF7EDFB31463846FFF708
:401B800035FF01E03046F8BD2046F8BD38B5064C0023054608462360FEF7FCFC431C02D1236803B12B6038BDF481FF1F7047704751F8040C0028BEBF091851F8043CC018ED
:401BC00004387047000000004E545A60666B7075787B7E7F80807F7E7B7875706B66605A544E48423C36312C2724211E1D1C1C1D1E2124272C31363C42484E00A3000000C5
:401C00008C0000007800000064000000510000003C00000028000000200000001C00000017000000100000000E0000000C0000000A00000008000000256C7509252E3266FE
:401C40000A000000004F00400C00405100403000C0510040100000000140001000140140000800400140000A004C014000020050014020004300232D302B2000686C4C00B6
:401C80006566674546470030313233343536373839414243444546003031323334353637383961626364656600000000F8B500BFF8BC08BC9E4670474D0000001106000039
:401CC000F8B500BFF8BC08BC9E46704729000000E01C0000C880FF1F80000000B000000000000000F881FF1F0000E02EC05D00001800000000366E0100000000000000002B
:401D0000000000000000000000000000000000000000000000000000741C000000000000000000000000000000000000000000000000000000000000000000000000000013
:401D4000000000000000000000000000000000000000000000000000E080FF1F000000000000000000000000000000000000000000000000000000000000000000000000E5
:401D80000000000000000000000000000000000000000000000000000000000000000000000000000000000000000000000000000000000000000000000000000000000023
:401DC00000000000000000000000000000000000000000000000000000000000000000000000000000000000000000000000000000000000000000000000000000000000E3
:401E000000000000000000000000000000000000000000000000000000000000000000000000000000000000000000000000000000000000000000000000000000000000A2
:401E40000000000000000000000000000000000000000000000000000000000000000000000000000000000000000000000000000000000000000000000000000000000062
:020000040003F7
:0200000480007A
:4000000001450040024F00400452004002640040026500404B06014033070140501401404515014066160140481701400119014002400140034101400442014002450140AA
:4000400001460140014701400248014009490140024C01400450014002510140000101100A361001110118101C088672870D840F85380120051009300D380F021301150E00
:4000800017301B081D381F0423062701293E2D083101353E3B203F015602571159045B045F018504860488018E028F08960197079A049B01A601A801AE02B001B104B30208
:4000C000B402B508B604B701B802BE50C020C106C5D0C620C701C81AC9FFCAFFCBFFCDA0CF04D018D280D405D804D904DA04DB04DC20DD22DF01E040E2C0E440E540E6C0D7
:40010000E8C0EAC0ECC0EEC000200210030204800580092411201201130819601B022002212423802480262027082C802E802F243120320834083610374139083B403E2A38
:400140003F80412049014B205218531059095B805F206D446F047340762A8548C007C206C407CAF0CCF6CEFAD004D204D62B000902D0040C0508067109080C140D081203CA
:4001800014DC150216221901201022402410250126AC2A202B012D04301F3104330834E03703380839803A203E043F014006460449FF4A074BFF4C404D204EF04F05500849
:4001C0005401580459045A045B045F01604061A8624063208011820E85018706883B8B069008923095019706982299079A099D06A43BA504A907AD02B038B106B204B30161
:40020000B403BF04D418D804D904DB04DF0100040282068408080A500E88109816101704180419101A401B091EA81F102280239026012720281829082B012E802F143008A4
:4002400031103660370839443A143D083F104A0850885340582059015A845E0265A082808B8891449294930897B0982099A99B0C9D109E809F20A104A22AA408A6D0A904DA
:40028000AB40C05DC25CC42ECA7ECC76CE6ED204D68FD830E220E62001080504090C0D0F0F30151C172319331B0C1D031F40233325022780293F2C012D012F8031C0332C50
:4002C0003401350F371C3A083B283E103F01402641034204440146C047E0482849FF4AFF4BFF4C624DA04EF04F41500C580459045A045F016640670269106A306B106D10FC
:400300006E106F12841185338606870C880C89038A138B049208971599339A109B049F08A20CA411A52AA60EA704AA13B010B20FB330B50FB908BA08BB20BE01BF04C023CB
:40034000C106C5E0C6CEC7B0C82EC9FFCAFFCBFFCEF0CF44D00CD804D904DA04DF01E6C0EA40EB0200140108082009200B80101812801580181019041A901C201E041F041C
:400380002004220825142620274129042C802E802F1430183110328033083660370838243E2A3F8040044308440845104610474149114F1050105160520256015720661000
:4003C0006708848087109144970899A09A2A9B0C9C089E819F21A490A514A610A760AA20AB40B001C006C20AC48ECAF2CC7ECEF6D0F6D224E8803380CC102F80A780CA80C7
:400400001B043F08C610CE805602D6049E029E026720D8800704668083048A808B109720C080D680E080B202E80100050A0510011A010003040C0000030300000000000021
:40044000000101000000010000CBCB000000000000010100010000001000081010001000000000000000000000000000000000000000000000000000000000000000000098
:40048000000000000000000000000000000000000000000000000000000000000000000000000000000000000000000000000000000000000000000000000000000000003C
:4004C00000000000000000000000000000000000000000000000000000000000000000000000000000000000000000000000000000000000000000000000000000000000FC
:4005000000000000000000000000000000000000000000000000000000000000000000000000000000000000000000000000000000000000000000000000000000000000BB
:40054000000000000000000000000000000000000000000000000000000000000000000000000000000000000000000000000000000000000000000000000000000000007B
:0200000490006A
:0400000000004005B7
:0200000490105A
:04000000BC90ACAF55
:0200000490303A
:020000003F07B8
:0200000490402A
:4000000000000000000000000000000000000000000000000000000000000000000000000000000000000000000000000000000000000000000000000000000000000000C0
:400040000000000000000000000000000000000000000000000000000000000000000000000000000000000000000000000000000000000000000000000000000000000080
:400080000000000000000000000000000000000000000000000000000000000000000000000000000000000000000000000000000000000000000000000000000000000040
:4000C0000000000000000000000000000000000000000000000000000000000000000000000000000000000000000000000000000000000000000000000000000000000000
:0200000490501A
:0C00000000012E16106900012E224F7026
:00000001FF